{
  "contractName": "Lottery",
  "abi": [
    {
      "inputs": [],
      "payable": false,
      "stateMutability": "nonpayable",
      "type": "constructor"
    },
    {
      "constant": false,
      "inputs": [
        {
          "name": "amount",
          "type": "uint256"
        }
      ],
      "name": "withdraw",
      "outputs": [],
      "payable": false,
      "stateMutability": "nonpayable",
      "type": "function"
    },
    {
      "constant": false,
      "inputs": [
        {
          "name": "numbers",
          "type": "int256[]"
        }
      ],
      "name": "reveal",
      "outputs": [],
      "payable": false,
      "stateMutability": "nonpayable",
      "type": "function"
    },
    {
      "constant": false,
      "inputs": [
        {
          "name": "hashArray",
          "type": "bytes32[]"
        }
      ],
      "name": "buyFullTicket",
      "outputs": [
        {
          "name": "bought",
          "type": "bool"
        }
      ],
      "payable": true,
      "stateMutability": "payable",
      "type": "function"
    },
    {
      "constant": false,
      "inputs": [
        {
          "name": "hashArray",
          "type": "bytes32[]"
        }
      ],
      "name": "buyHalfTicket",
      "outputs": [
        {
          "name": "bought",
          "type": "bool"
        }
      ],
      "payable": true,
      "stateMutability": "payable",
      "type": "function"
    },
    {
      "constant": false,
      "inputs": [
        {
          "name": "hashArray",
          "type": "bytes32[]"
        }
      ],
      "name": "buyQuarterTicket",
      "outputs": [
        {
          "name": "bought",
          "type": "bool"
        }
      ],
      "payable": true,
      "stateMutability": "payable",
      "type": "function"
    },
    {
      "constant": true,
      "inputs": [],
      "name": "getCollectedMoney",
      "outputs": [
        {
          "name": "",
          "type": "uint256"
        }
      ],
      "payable": false,
      "stateMutability": "view",
      "type": "function"
    },
    {
      "constant": true,
      "inputs": [],
      "name": "getBlockNumber",
      "outputs": [
        {
          "name": "",
          "type": "uint256"
        }
      ],
      "payable": false,
      "stateMutability": "view",
      "type": "function"
    },
    {
      "constant": true,
      "inputs": [],
      "name": "getRound",
      "outputs": [
        {
          "name": "",
          "type": "uint256"
        }
      ],
      "payable": false,
      "stateMutability": "view",
      "type": "function"
    },
    {
      "constant": true,
      "inputs": [
        {
          "name": "x",
          "type": "address"
        }
      ],
      "name": "getHash",
      "outputs": [
        {
          "name": "",
          "type": "bytes32"
        }
      ],
      "payable": false,
      "stateMutability": "pure",
      "type": "function"
    },
    {
      "constant": true,
      "inputs": [],
      "name": "getProfit",
      "outputs": [
        {
          "name": "",
          "type": "uint256"
        }
      ],
      "payable": false,
      "stateMutability": "view",
      "type": "function"
    }
  ],
  "bytecode": "0x6060604052341561000f57600080fd5b6001600560006101000a81548160ff02191690831515021790555043600681905550601460065401600781905550600160088190555060016009819055506118b68061005c6000396000f3006060604052600436106100a4576000357c0100000000000000000000000000000000000000000000000000000000900463ffffffff1680630da19175146100a95780631da0b8fc146101105780631ee1c639146101655780632e1a7d4d146101cc57806342cbb15c146101ef578063679dffb41461021857806397f263d7146102415780639f8743f7146102a8578063d67adb8b146102d1578063d96ed2c0146102fa575b600080fd5b6100f6600480803590602001908201803590602001908080602002602001604051908101604052809392919081815260200183836020028082843782019150505050505091905050610354565b604051808215151515815260200191505060405180910390f35b341561011b57600080fd5b610147600480803573ffffffffffffffffffffffffffffffffffffffff169060200190919050506103d8565b60405180826000191660001916815260200191505060405180910390f35b6101b260048080359060200190820180359060200190808060200260200160405190810160405280939291908181526020018383602002808284378201915050505050509190505061043b565b604051808215151515815260200191505060405180910390f35b34156101d757600080fd5b6101ed60048080359060200190919050506104bf565b005b34156101fa57600080fd5b6102026105e6565b6040518082815260200191505060405180910390f35b341561022357600080fd5b61022b6105ee565b6040518082815260200191505060405180910390f35b61028e600480803590602001908201803590602001908080602002602001604051908101604052809392919081815260200183836020028082843782019150505050505091905050610635565b604051808215151515815260200191505060405180910390f35b34156102b357600080fd5b6102bb6106b9565b6040518082815260200191505060405180910390f35b34156102dc57600080fd5b6102e46106c1565b6040518082815260200191505060405180910390f35b341561030557600080fd5b6103526004808035906020019082018035906020019080806020026020016040519081016040528093929190818152602001838360200280828437820191505050505050919050506106ca565b005b6000661c6bf52634000034101561036a57600080fd5b610372610ca5565b156103a957600154600080828254019250508190555060006001819055506014600654016006819055506001600854016008819055505b6103b1610cb5565b15156103bc57600080fd5b6103cf661c6bf526340000836002610cd2565b60019050919050565b6000600982604051808381526020018273ffffffffffffffffffffffffffffffffffffffff1673ffffffffffffffffffffffffffffffffffffffff166c010000000000000000000000000281526014019250505060405180910390209050919050565b6000660e35fa931a000034101561045157600080fd5b610459610ca5565b1561049057600154600080828254019250508190555060006001819055506014600654016006819055506001600854016008819055505b610498610cb5565b15156104a357600080fd5b6104b6660e35fa931a0000836004610cd2565b60019050919050565b6000600260003373ffffffffffffffffffffffffffffffffffffffff1673ffffffffffffffffffffffffffffffffffffffff1681526020019081526020016000205411151561050d57600080fd5b80600260003373ffffffffffffffffffffffffffffffffffffffff1673ffffffffffffffffffffffffffffffffffffffff168152602001908152602001600020541015156105e35780600260003373ffffffffffffffffffffffffffffffffffffffff1673ffffffffffffffffffffffffffffffffffffffff168152602001908152602001600020600082825403925050819055503373ffffffffffffffffffffffffffffffffffffffff166108fc829081150290604051600060405180830381858888f1935050505015156105e257600080fd5b5b50565b600043905090565b6000600260003373ffffffffffffffffffffffffffffffffffffffff1673ffffffffffffffffffffffffffffffffffffffff16815260200190815260200160002054905090565b600066071afd498d000034101561064b57600080fd5b610653610ca5565b1561068a57600154600080828254019250508190555060006001819055506014600654016006819055506001600854016008819055505b610692610cb5565b151561069d57600080fd5b6106b066071afd498d0000836008610cd2565b60019050919050565b600043905090565b60008054905090565b6106d26116ef565b60008060003411156106e357600080fd5b6106eb610e3c565b15610715576106fb600954610e4c565b506014600754016007819055506001600954016009819055505b61071d61122c565b151561072857600080fd5b610733600385611249565b151561073e57600080fd5b600360405180591061074d5750595b90808252806020026020018201604052509250600091505b835182101561081157838281518110151561077c57fe5b9060200190602002015133604051808381526020018273ffffffffffffffffffffffffffffffffffffffff1673ffffffffffffffffffffffffffffffffffffffff166c0100000000000000000000000002815260140192505050604051809103902083838151811015156107ec57fe5b9060200190602002019060001916908160001916815250508180600101925050610765565b61099260046000600954815260200190815260200160002060003373ffffffffffffffffffffffffffffffffffffffff1673ffffffffffffffffffffffffffffffffffffffff168152602001908152602001600020805480602002602001604051908101604052809291908181526020016000905b828210156109885783829060005260206000209060020201606060405190810160405290816000820160009054906101000a900473ffffffffffffffffffffffffffffffffffffffff1673ffffffffffffffffffffffffffffffffffffffff1673ffffffffffffffffffffffffffffffffffffffff1681526020016000820160149054906101000a900460ff1660ff1660ff1681526020016001820180548060200260200160405190810160405280929190818152602001828054801561097057602002820191906000526020600020905b81546000191681526020019060010190808311610958575b50505050508152505081526020019060010190610886565b5050505084611257565b90507fffffffffffffffffffffffffffffffffffffffffffffffffffffffffffffffff8114156109c157600080fd5b60036000600954815260200190815260200160002080548060010182816109e89190611703565b9160005260206000209060020201600060606040519081016040528060046000600954815260200190815260200160002060003373ffffffffffffffffffffffffffffffffffffffff1673ffffffffffffffffffffffffffffffffffffffff16815260200190815260200160002086815481101515610a6357fe5b906000526020600020906002020160000160009054906101000a900473ffffffffffffffffffffffffffffffffffffffff1673ffffffffffffffffffffffffffffffffffffffff16815260200160046000600954815260200190815260200160002060003373ffffffffffffffffffffffffffffffffffffffff1673ffffffffffffffffffffffffffffffffffffffff16815260200190815260200160002086815481101515610b0f57fe5b906000526020600020906002020160000160149054906101000a900460ff1660ff16815260200160046000600954815260200190815260200160002060003373ffffffffffffffffffffffffffffffffffffffff1673ffffffffffffffffffffffffffffffffffffffff16815260200190815260200160002086815481101515610b9557fe5b9060005260206000209060020201600101805480602002602001604051908101604052809291908181526020018280548015610bf457602002820191906000526020600020905b81546000191681526020019060010190808311610bdc575b5050505050815250909190915060008201518160000160006101000a81548173ffffffffffffffffffffffffffffffffffffffff021916908373ffffffffffffffffffffffffffffffffffffffff16021790555060208201518160000160146101000a81548160ff021916908360ff1602179055506040820151816001019080519060200190610c85929190611735565b50505050610c9660095433836112d8565b610c9f84611588565b50505050565b6000601460065401431015905090565b60006006544310158015610ccd575060146006540143105b905090565b610cdd600383611603565b1515610ce857600080fd5b60046000600854815260200190815260200160002060003373ffffffffffffffffffffffffffffffffffffffff1673ffffffffffffffffffffffffffffffffffffffff1681526020019081526020016000208054806001018281610d4c9190611703565b916000526020600020906002020160006060604051908101604052803373ffffffffffffffffffffffffffffffffffffffff1681526020018560ff16815260200186815250909190915060008201518160000160006101000a81548173ffffffffffffffffffffffffffffffffffffffff021916908373ffffffffffffffffffffffffffffffffffffffff16021790555060208201518160000160146101000a81548160ff021916908360ff1602179055506040820151816001019080519060200190610e1a929190611735565b5050505082600160008282540192505081905550610e3783611611565b505050565b6000601460075401431015905090565b600080600080600080600080600360008a81526020019081526020016000208054905096506003871015610e835760009750611220565b86600a54811515610e9057fe5b06955086600b54811515610ea057fe5b06945086600c54811515610eb057fe5b0693505b84861480610ec157508386145b80610ecb57508385145b15610f235784861415610eea578660018701811515610ee657fe5b0695505b83861415610f04578660018701811515610f0057fe5b0695505b83851415610f1e578660018601811515610f1a57fe5b0694505b610eb4565b600360008a815260200190815260200160002086815481101515610f4357fe5b906000526020600020906002020160000160149054906101000a900460ff1660ff16600054811515610f7157fe5b0492506002600360008b815260200190815260200160002086815481101515610f9657fe5b906000526020600020906002020160000160149054906101000a900460ff1660ff16600054811515610fc457fe5b04811515610fce57fe5b0491506004600360008b815260200190815260200160002085815481101515610ff357fe5b906000526020600020906002020160000160149054906101000a900460ff1660ff1660005481151561102157fe5b0481151561102b57fe5b0490508260026000600360008d81526020019081526020016000208981548110151561105357fe5b906000526020600020906002020160000160009054906101000a900473ffffffffffffffffffffffffffffffffffffffff1673ffffffffffffffffffffffffffffffffffffffff1673ffffffffffffffffffffffffffffffffffffffff168152602001908152602001600020600082825401925050819055508160026000600360008d8152602001908152602001600020888154811015156110f157fe5b906000526020600020906002020160000160009054906101000a900473ffffffffffffffffffffffffffffffffffffffff1673ffffffffffffffffffffffffffffffffffffffff1673ffffffffffffffffffffffffffffffffffffffff168152602001908152602001600020600082825401925050819055508060026000600360008d81526020019081526020016000208781548110151561118f57fe5b906000526020600020906002020160000160009054906101000a900473ffffffffffffffffffffffffffffffffffffffff1673ffffffffffffffffffffffffffffffffffffffff1673ffffffffffffffffffffffffffffffffffffffff1681526020019081526020016000206000828254019250508190555080828401016000808282540392505081905550600197505b50505050505050919050565b60006007544310158015611244575060146007540143105b905090565b600082825114905092915050565b600080600084519150600090505b818112156112ac57611292858281518110151561127e57fe5b90602001906020020151604001518561165f565b1561129f578092506112d0565b8080600101915050611265565b7fffffffffffffffffffffffffffffffffffffffffffffffffffffffffffffffff92505b505092915050565b60006004600085815260200190815260200160002060008473ffffffffffffffffffffffffffffffffffffffff1673ffffffffffffffffffffffffffffffffffffffff168152602001908152602001600020805490509050808212151561133e57600080fd5b6004600085815260200190815260200160002060008473ffffffffffffffffffffffffffffffffffffffff1673ffffffffffffffffffffffffffffffffffffffff1681526020019081526020016000206001820381548110151561139e57fe5b90600052602060002090600202016004600086815260200190815260200160002060008573ffffffffffffffffffffffffffffffffffffffff1673ffffffffffffffffffffffffffffffffffffffff1681526020019081526020016000208381548110151561140957fe5b90600052602060002090600202016000820160009054906101000a900473ffffffffffffffffffffffffffffffffffffffff168160000160006101000a81548173ffffffffffffffffffffffffffffffffffffffff021916908373ffffffffffffffffffffffffffffffffffffffff1602179055506000820160149054906101000a900460ff168160000160146101000a81548160ff021916908360ff16021790555060018201816001019080546114c2929190611788565b509050506004600085815260200190815260200160002060008473ffffffffffffffffffffffffffffffffffffffff1673ffffffffffffffffffffffffffffffffffffffff1681526020019081526020016000206001820381548110151561152657fe5b9060005260206000209060020201600080820160006101000a81549073ffffffffffffffffffffffffffffffffffffffff02191690556000820160146101000a81549060ff021916905560018201600061158091906117da565b505050505050565b80600081518110151561159757fe5b90602001906020020151600a600082825418925050819055508060018151811015156115bf57fe5b90602001906020020151600b600082825418925050819055508060028151811015156115e757fe5b90602001906020020151600c6000828254189250508190555050565b600082825114905092915050565b8034111561165c573373ffffffffffffffffffffffffffffffffffffffff166108fc8234039081150290604051600060405180830381858888f19350505050151561165b57600080fd5b5b50565b6000806000808551925084519150818314151561167f57600093506116e6565b600090505b828110156116e157848181518110151561169a57fe5b906020019060200201516000191686828151811015156116b657fe5b90602001906020020151600019161415156116d457600093506116e6565b8080600101915050611684565b600193505b50505092915050565b602060405190810160405280600081525090565b8154818355818115116117305760020281600202836000526020600020918201910161172f91906117fb565b5b505050565b828054828255906000526020600020908101928215611777579160200282015b82811115611776578251829060001916905591602001919060010190611755565b5b5090506117849190611865565b5090565b8280548282559060005260206000209081019282156117c95760005260206000209182015b828111156117c85782548255916001019190600101906117ad565b5b5090506117d69190611865565b5090565b50805460008255906000526020600020908101906117f89190611865565b50565b61186291905b8082111561185e57600080820160006101000a81549073ffffffffffffffffffffffffffffffffffffffff02191690556000820160146101000a81549060ff021916905560018201600061185591906117da565b50600201611801565b5090565b90565b61188791905b8082111561188357600081600090555060010161186b565b5090565b905600a165627a7a72305820a9835574612541a2f65bd09bd1277daf4b569c3930f8502cc7653658e2c4c82e0029",
  "source": "pragma solidity ^0.4.19; \n\ncontract Lottery {\n    \n    /*  Constants   */\n    uint constant fullTicketPrice = 8 finney ;\n    uint constant halfTicketPrice = 4 finney ;\n    uint constant quarterTicketPrice = 2 finney ;\n    \n    /*\n    Number of random to be submitted when buying a new ticket.\n    If callers submit less or more the call will be reverted.\n    */\n    uint constant numberOfRandoms = 3;\n    /*\n    Number of blocks until the round ends.\n    There are two rounds, submission and reveal.\n    */\n    uint constant roundPeriod = 20;\n    /* \n    Second winner will get 1/secondWinnerCof of the relative price.\n    */\n    uint constant secondWinnerCof = 2;\n    \n    /* \n    Third winner will get 1/thirdWinnerCof of the relative price.\n    */\n    uint constant thirdWinnerCof = 4;\n    \n    \n    uint collected_money_current; // Total collected money until current rounds reveal time\n    uint collected_money_next; // Collected money at next rounds submission time\n    \n    /* \n    Users prizes will be stored in this mapping so that they can withdraw their \n    winnings any time they want to.\n    */\n    mapping(address=>uint) profits;\n\n    /*\n    approvedTickets is the mapping that keeps successfully revealed tickets according \n    to round number. Note thatonly 3 of the successfully revealed tickets can win \n    the prizes\n    */\n    mapping(uint => Ticket[]) approvedTickets;\n    \n    /*\n    tikcekts is the array that keeps all the tickets submitted at submission time\n    of corresponding round\n    */\n    mapping(uint => mapping(address => Ticket[])) tickets;\n\n    /*\n    isSubmissionTime is used to check if it is submission or reveal time.\n    */\n    bool isSubmissionTime; \n    \n    /*\n    submissionStartBlockNumber is used to determine if it is time to switch between \n    submission and reveal periods.\n    */\n    uint submissionStartBlockNumber;\n    uint revealStartBlockNumber;\n\n    /*\n    submission round number and reveal round number are used to keep track of round numbers\n    */\n    uint submissionRoundNumber;\n    uint revealRoundNumber;\n    \n    int firstHash; // firstHash is the hash used to determine the first winner\n    int secondHash; // secondHash is the hash used to determine the second winner\n    int thirdHash; // thirdHash is the hash used to determine the third winner\n    \n    function Lottery () public {\n        isSubmissionTime = true; // We start with the submission period.\n        submissionStartBlockNumber = block.number; // Let the current block be the startBlock.\n        revealStartBlockNumber = submissionStartBlockNumber + roundPeriod;\n        submissionRoundNumber = 1;\n        revealRoundNumber = 1;\n    }\n\n    struct Ticket{\n        address buyersAddress;\n        uint8 ticketCoeffecient; // 2 -> Full 4 -> Half 8-> Quarter\n        bytes32[] hashes;\n    }\n    \n    modifier noEthSent(){\n        if (msg.value>0) {\n            revert();\n        }\n        _;\n    }\n    \n    modifier FullTicket() {\n        if (msg.value < fullTicketPrice) {\n            revert();\n        }\n        _;\n    }\n    \n    modifier HalfTicket() {\n        if (msg.value < halfTicketPrice) {\n            revert();\n        }\n        _;\n    }\n    \n    modifier QuarterTicket() {\n        if (msg.value < quarterTicketPrice) {\n            revert();\n        }\n        _;\n    }\n    \n    // withdraw lets winners withdraw their winnings.\n    // This method first subtracts the amount to be withdrawn from the account\n    // so that DOA (recursive calls) are not dangerous for the contract. After \n    // subtracting the relevant amount the send call is executed. Note that if \n    // caller tries to withdraw more than his winnings it will be reverted.\n    function withdraw(uint amount) public {\n        if (profits[msg.sender] <= 0) revert();\n        if (profits[msg.sender] >= amount) {\n            profits[msg.sender] -= amount;\n            if (!msg.sender.send(amount)) revert();\n        }\n    }\n    \n    function sendTheRemainingMoney(uint ticketPrice) private {\n        if (msg.value > ticketPrice) {\n            if (!msg.sender.send(msg.value-ticketPrice))  revert();\n        }\n    }    \n\n    function compareArrays(bytes32[] _arr1, bytes32[] _arr2) private pure returns(bool retval){\n        \n        uint len_arr1 = _arr1.length;\n        uint len_arr2 = _arr2.length;\n        \n        if(len_arr1 != len_arr2){\n            return(false);\n        }\n        \n        for(uint i = 0; i< len_arr1; i++){\n            if(_arr1[i] != _arr2[i]){\n                return(false);\n            }\n        }\n        \n        return(true);\n    }\n\n    function checkHashes(Ticket[] ticketsOfParticipant,bytes32[] givenHashes) private pure returns(int){\n        int len = int(ticketsOfParticipant.length);\n        for(int i = 0; i< len ; i++){\n            if (compareArrays(ticketsOfParticipant[uint(i)].hashes, givenHashes)){\n                return i;\n            }\n        }\n        return -1;\n    }\n    \n    function isEndOfReveal() private view returns(bool){\n        return block.number >= revealStartBlockNumber + roundPeriod;\n    }\n    \n    function isEndOfSubmission() private view returns (bool){\n        return block.number >= submissionStartBlockNumber + roundPeriod;\n    }\n\n    function canSubmit() private view returns (bool) {\n        return (block.number >= submissionStartBlockNumber) && (block.number < (submissionStartBlockNumber + roundPeriod));\n    }\n\n    function canReveal() private view returns (bool) {\n        return (block.number >= revealStartBlockNumber) && (block.number < (revealStartBlockNumber + roundPeriod));\n    }\n    \n    function removeTicket(uint _roundNumber, address _ticketOwner, int _index) private{\n        int len = int(tickets[_roundNumber][_ticketOwner].length);\n        if(_index >= len){\n            revert();\n        }else{\n            tickets[_roundNumber][_ticketOwner][uint(_index)] = tickets[_roundNumber][_ticketOwner][uint(len-1)];\n            delete tickets[_roundNumber][_ticketOwner][uint(len-1)];\n        }\n    }\n    \n    function updateRandomHashes(int[] numbers) private {\n        firstHash ^= numbers[0];\n        secondHash ^= numbers[1];\n        thirdHash ^= numbers[2];\n    }\n    \n    function findWinnersAndGivePrizes(uint _roundNumber) private returns(bool){\n        uint numberOfParticipants = approvedTickets[_roundNumber].length;\n        if (numberOfParticipants < 3){\n            return false;\n        }\n        // Take the mod with the numberOfParticipants so that it is guaranteed\n        // that there will be a winner.\n        uint firstWinnerIndex = uint(firstHash)%numberOfParticipants;\n        uint secondWinnerIndex = uint(secondHash)%numberOfParticipants;\n        uint thirdWinnerIndex = uint(thirdHash)%numberOfParticipants;\n\n        // Make sure winners are different indexes.\n        while((firstWinnerIndex == secondWinnerIndex)||(firstWinnerIndex == thirdWinnerIndex)||(secondWinnerIndex == thirdWinnerIndex)){\n            if(firstWinnerIndex == secondWinnerIndex){\n                firstWinnerIndex = (firstWinnerIndex + 1) % numberOfParticipants;\n            }\n\n            if(firstWinnerIndex == thirdWinnerIndex){\n                firstWinnerIndex = (firstWinnerIndex + 1) % numberOfParticipants;\n            }\n\n            if(secondWinnerIndex == thirdWinnerIndex){\n                secondWinnerIndex = (secondWinnerIndex + 1) % numberOfParticipants;\n            }\n        }\n         \n        // Calculate the prizes based on the position and ticket type.\n        uint firstPrize = collected_money_current/approvedTickets[_roundNumber][firstWinnerIndex].ticketCoeffecient; \n        uint secondPrize = collected_money_current/approvedTickets[_roundNumber][secondWinnerIndex].ticketCoeffecient/secondWinnerCof;\n        uint thirdPrize = collected_money_current/approvedTickets[_roundNumber][thirdWinnerIndex].ticketCoeffecient/thirdWinnerCof;\n        \n        // Store the profits so that later on winners can withdraw them.\n        profits[approvedTickets[_roundNumber][firstWinnerIndex].buyersAddress] += firstPrize;\n        profits[approvedTickets[_roundNumber][secondWinnerIndex].buyersAddress] += secondPrize ;\n        profits[approvedTickets[_roundNumber][thirdWinnerIndex].buyersAddress] += thirdPrize ;\n        \n        // Update the collected_money.\n        collected_money_current -= firstPrize + secondPrize + thirdPrize;\n        \n        return true; \n    }\n    \n    function reveal(int[] numbers) public noEthSent {\n        // Check if it is time to find winners. If so switch to the submission period.\n        if (isEndOfReveal()){\n            // Give the prizes.\n            findWinnersAndGivePrizes(revealRoundNumber);\n            revealStartBlockNumber = revealStartBlockNumber + roundPeriod;\n            revealRoundNumber = revealRoundNumber + 1;\n        }\n        \n        // Check if it is reveal time or not\n        require(canReveal());\n\n        // Check if numbers are exactly 'numberOfRandoms'. Otherwise revert.\n        if (!hasExactlyXElementsIntArray(numberOfRandoms,numbers)) revert();\n        bytes32[] memory givenHashes = new bytes32[](numberOfRandoms);\n        // Calculate the hashes with the given number and the senders address\n        for (uint i = 0 ; i < numbers.length;i++){\n            givenHashes[i]=(keccak256(numbers[i],msg.sender));\n        }\n        \n        // Check if the submission and reveal hashes are matched. Otherwise revert.\n        int index = checkHashes(tickets[revealRoundNumber][msg.sender],givenHashes);\n        if (index == -1) revert();\n        \n        // If submission and reveal hashes are matched, the ticket can join the lottery\n        approvedTickets[revealRoundNumber].push(Ticket(tickets[revealRoundNumber][msg.sender][uint(index)].buyersAddress, tickets[revealRoundNumber][msg.sender][uint(index)].ticketCoeffecient, tickets[revealRoundNumber][msg.sender][uint(index)].hashes));\n        \n        // Remove from candidate ticket list\n        removeTicket(revealRoundNumber, msg.sender, index);\n        \n        // Update the hashes to determine the winners.\n        updateRandomHashes(numbers);\n\n    }\n    function hasExactlyXElements(uint x,bytes32[] hashArray) private pure returns(bool){\n        return hashArray.length == x;\n    }\n    \n    function hasExactlyXElementsIntArray(uint x,int[] intArray) private pure returns(bool){\n        return intArray.length == x;\n    }\n    function buyFullTicket(bytes32[] hashArray) public FullTicket /*canSubmit*/ payable returns (bool bought){\n        if(isEndOfSubmission()){\n            collected_money_current += collected_money_next;\n            collected_money_next = 0;\n            submissionStartBlockNumber = submissionStartBlockNumber + roundPeriod;\n            submissionRoundNumber = submissionRoundNumber + 1;\n        }\n\n        require(canSubmit());\n\n        buyTicket(fullTicketPrice,hashArray,2);\n        return true;\n    }\n    \n    function buyHalfTicket(bytes32[] hashArray) public HalfTicket /*canSubmit*/ payable returns (bool bought){\n        if(isEndOfSubmission()){\n            collected_money_current += collected_money_next;\n            collected_money_next = 0;\n            submissionStartBlockNumber = submissionStartBlockNumber + roundPeriod;\n            submissionRoundNumber = submissionRoundNumber + 1;\n        }\n\n        require(canSubmit());\n\n        buyTicket(halfTicketPrice,hashArray,4);\n        return true;\n    }\n    \n    function buyQuarterTicket(bytes32[] hashArray) public QuarterTicket /*canSubmit*/ payable returns (bool bought){\n        if(isEndOfSubmission()){\n            collected_money_current += collected_money_next;\n            collected_money_next = 0;\n            submissionStartBlockNumber = submissionStartBlockNumber + roundPeriod;\n            submissionRoundNumber = submissionRoundNumber + 1;\n        }\n\n        require(canSubmit());\n\n        buyTicket(quarterTicketPrice,hashArray,8);\n        return true;\n    }\n    \n    function buyTicket(uint ticketPrice,bytes32[] hashArray,uint8 ticketCoefficient) private {\n        // Check if there are exactly 'numberOfRandoms' hashes. Otherwise revert.\n        if (!hasExactlyXElements(numberOfRandoms,hashArray)) revert();\n        // Record the hashes of the sender to verify later\n        // Add the caller to the participants\n        tickets[submissionRoundNumber][msg.sender].push(Ticket(msg.sender, ticketCoefficient, hashArray));\n        collected_money_next += ticketPrice;\n        // Send the excessive amount\n        sendTheRemainingMoney(ticketPrice);\n\n    }\n\n    function getCollectedMoney() public view returns(uint){\n        return collected_money_current;\n    }\n    \n    function getBlockNumber() public view returns(uint){\n        return block.number;\n    }\n    \n    function getRound() public view returns(uint){\n        return block.number;\n    }\n    function getHash(address x) public pure returns(bytes32){\n        return keccak256(int(9),x);\n    }\n\n    function getProfit() public view returns(uint){\n        return profits[msg.sender];\n    }\n}\n",
  "sourcePath": "/Users/atakan1/Desktop/cmpe.483/projects/project1/lotterySmartContract/contracts/lottery.sol",
  "compiler": {
    "name": "solc",
    "version": "0.4.21+commit.dfe3193c.Emscripten.clang"
  },
  "schemaVersion": "2.0.0",
  "updatedAt": "2018-04-22T11:20:46.007Z"
}