{
  "contractName": "Lottery",
  "abi": [
    {
      "inputs": [],
      "payable": false,
      "stateMutability": "nonpayable",
      "type": "constructor"
    },
    {
      "constant": false,
      "inputs": [
        {
          "name": "amount",
          "type": "uint256"
        }
      ],
      "name": "withdraw",
      "outputs": [],
      "payable": false,
      "stateMutability": "nonpayable",
      "type": "function"
    },
    {
      "constant": false,
      "inputs": [
        {
          "name": "numbers",
          "type": "int256[]"
        }
      ],
      "name": "reveal",
      "outputs": [],
      "payable": false,
      "stateMutability": "nonpayable",
      "type": "function"
    },
    {
      "constant": false,
      "inputs": [
        {
          "name": "hashArray",
          "type": "bytes32[]"
        }
      ],
      "name": "buyFullTicket",
      "outputs": [
        {
          "name": "bought",
          "type": "bool"
        }
      ],
      "payable": true,
      "stateMutability": "payable",
      "type": "function"
    },
    {
      "constant": false,
      "inputs": [
        {
          "name": "hashArray",
          "type": "bytes32[]"
        }
      ],
      "name": "buyHalfTicket",
      "outputs": [
        {
          "name": "bought",
          "type": "bool"
        }
      ],
      "payable": true,
      "stateMutability": "payable",
      "type": "function"
    },
    {
      "constant": false,
      "inputs": [
        {
          "name": "hashArray",
          "type": "bytes32[]"
        }
      ],
      "name": "buyQuarterTicket",
      "outputs": [
        {
          "name": "bought",
          "type": "bool"
        }
      ],
      "payable": true,
      "stateMutability": "payable",
      "type": "function"
    },
    {
      "constant": true,
      "inputs": [],
      "name": "getCollectedMoney",
      "outputs": [
        {
          "name": "",
          "type": "uint256"
        }
      ],
      "payable": false,
      "stateMutability": "view",
      "type": "function"
    },
    {
      "constant": true,
      "inputs": [],
      "name": "getBlockNumber",
      "outputs": [
        {
          "name": "",
          "type": "uint256"
        }
      ],
      "payable": false,
      "stateMutability": "view",
      "type": "function"
    },
    {
      "constant": true,
      "inputs": [],
      "name": "getRound",
      "outputs": [
        {
          "name": "",
          "type": "uint256"
        }
      ],
      "payable": false,
      "stateMutability": "view",
      "type": "function"
    },
    {
      "constant": true,
      "inputs": [
        {
          "name": "x",
          "type": "address"
        }
      ],
      "name": "getHash",
      "outputs": [
        {
          "name": "",
          "type": "bytes32"
        }
      ],
      "payable": false,
      "stateMutability": "pure",
      "type": "function"
    }
  ],
  "bytecode": "0x6060604052341561000f57600080fd5b6001600460006101000a81548160ff02191690831515021790555043600581905550610f10806100406000396000f300606060405260043610610099576000357c0100000000000000000000000000000000000000000000000000000000900463ffffffff1680630da191751461009e5780631da0b8fc146101055780631ee1c6391461015a5780632e1a7d4d146101c157806342cbb15c146101e457806397f263d71461020d5780639f8743f714610274578063d67adb8b1461029d578063d96ed2c0146102c6575b600080fd5b6100eb600480803590602001908201803590602001908080602002602001604051908101604052809392919081815260200183836020028082843782019150505050505091905050610320565b604051808215151515815260200191505060405180910390f35b341561011057600080fd5b61013c600480803573ffffffffffffffffffffffffffffffffffffffff1690602001909190505061036d565b60405180826000191660001916815260200191505060405180910390f35b6101a76004808035906020019082018035906020019080806020026020016040519081016040528093929190818152602001838360200280828437820191505050505050919050506103d0565b604051808215151515815260200191505060405180910390f35b34156101cc57600080fd5b6101e2600480803590602001909190505061041d565b005b34156101ef57600080fd5b6101f7610544565b6040518082815260200191505060405180910390f35b61025a60048080359060200190820180359060200190808060200260200160405190810160405280939291908181526020018383602002808284378201915050505050509190505061054c565b604051808215151515815260200191505060405180910390f35b341561027f57600080fd5b610287610599565b6040518082815260200191505060405180910390f35b34156102a857600080fd5b6102b06105a1565b6040518082815260200191505060405180910390f35b34156102d157600080fd5b61031e6004808035906020019082018035906020019080806020026020016040519081016040528093929190818152602001838360200280828437820191505050505050919050506105aa565b005b6000661c6bf52634000034101561033657600080fd5b600460009054906101000a900460ff16151561035157600080fd5b610364661c6bf5263400008360026107b4565b60019050919050565b6000600982604051808381526020018273ffffffffffffffffffffffffffffffffffffffff1673ffffffffffffffffffffffffffffffffffffffff166c010000000000000000000000000281526014019250505060405180910390209050919050565b6000660e35fa931a00003410156103e657600080fd5b600460009054906101000a900460ff16151561040157600080fd5b610414660e35fa931a00008360046107b4565b60019050919050565b6000600260003373ffffffffffffffffffffffffffffffffffffffff1673ffffffffffffffffffffffffffffffffffffffff1681526020019081526020016000205411151561046b57600080fd5b80600260003373ffffffffffffffffffffffffffffffffffffffff1673ffffffffffffffffffffffffffffffffffffffff168152602001908152602001600020541015156105415780600260003373ffffffffffffffffffffffffffffffffffffffff1673ffffffffffffffffffffffffffffffffffffffff168152602001908152602001600020600082825403925050819055503373ffffffffffffffffffffffffffffffffffffffff166108fc829081150290604051600060405180830381858888f19350505050151561054057600080fd5b5b50565b600043905090565b600066071afd498d000034101561056257600080fd5b600460009054906101000a900460ff16151561057d57600080fd5b61059066071afd498d00008360086107b4565b60019050919050565b600043905090565b60008054905090565b6105b2610db1565b6000600460009054906101000a900460ff16156105ce57600080fd5b60003411156105dc57600080fd5b6105e760038461092d565b15156105f257600080fd5b60036040518059106106015750595b90808252806020026020018201604052509150600090505b82518110156106c557828181518110151561063057fe5b9060200190602002015133604051808381526020018273ffffffffffffffffffffffffffffffffffffffff1673ffffffffffffffffffffffffffffffffffffffff166c0100000000000000000000000002815260140192505050604051809103902082828151811015156106a057fe5b9060200190602002019060001916908160001916815250508080600101915050610619565b610760600160003373ffffffffffffffffffffffffffffffffffffffff1673ffffffffffffffffffffffffffffffffffffffff16815260200190815260200160002080548060200260200160405190810160405280929190818152602001828054801561075557602002820191906000526020600020905b8154600019168152602001906001019080831161073d575b50505050508361093b565b151561076b57600080fd5b610774836109e0565b61077c610a5b565b156107af576001600460006101000a81548160ff0219169083151502179055506107a4610a6b565b600143016005819055505b505050565b6107bf600383610d45565b15156107ca57600080fd5b81600160003373ffffffffffffffffffffffffffffffffffffffff1673ffffffffffffffffffffffffffffffffffffffff168152602001908152602001600020908051906020019061081d929190610dc5565b50600380548060010182816108329190610e18565b9160005260206000209001600060408051908101604052803373ffffffffffffffffffffffffffffffffffffffff1681526020018560ff16815250909190915060008201518160000160006101000a81548173ffffffffffffffffffffffffffffffffffffffff021916908373ffffffffffffffffffffffffffffffffffffffff16021790555060208201518160000160146101000a81548160ff021916908360ff1602179055505050508260008082825401925050819055506108f583610d53565b6108fd610da1565b15610928576000600460006101000a81548160ff021916908315150217905550600143016005819055505b505050565b600082825114905092915050565b600080600080600092505b84518310156109d25760009150600090505b85518110156109b557858181518110151561096f57fe5b9060200190602002015160001916858481518110151561098b57fe5b906020019060200201516000191614156109a857600191506109b5565b8080600101915050610958565b8115156109c557600093506109d7565b8280600101935050610946565b600193505b50505092915050565b8060008151811015156109ef57fe5b90602001906020020151600660008282541892505081905550806001815181101515610a1757fe5b90602001906020020151600760008282541892505081905550806002815181101515610a3f57fe5b9060200190602002015160086000828254189250508190555050565b6000600460055401431015905090565b6000806000806000806000600380549050965086600654811515610a8b57fe5b06955086600754811515610a9b57fe5b06945086600854811515610aab57fe5b069350600386815481101515610abd57fe5b906000526020600020900160000160149054906101000a900460ff1660ff16600054811515610ae857fe5b0492506002600386815481101515610afc57fe5b906000526020600020900160000160149054906101000a900460ff1660ff16600054811515610b2757fe5b04811515610b3157fe5b0491506004600385815481101515610b4557fe5b906000526020600020900160000160149054906101000a900460ff1660ff16600054811515610b7057fe5b04811515610b7a57fe5b0490508260026000600389815481101515610b9157fe5b906000526020600020900160000160009054906101000a900473ffffffffffffffffffffffffffffffffffffffff1673ffffffffffffffffffffffffffffffffffffffff1673ffffffffffffffffffffffffffffffffffffffff168152602001908152602001600020600082825401925050819055508160026000600388815481101515610c1b57fe5b906000526020600020900160000160009054906101000a900473ffffffffffffffffffffffffffffffffffffffff1673ffffffffffffffffffffffffffffffffffffffff1673ffffffffffffffffffffffffffffffffffffffff168152602001908152602001600020600082825401925050819055508060026000600387815481101515610ca557fe5b906000526020600020900160000160009054906101000a900473ffffffffffffffffffffffffffffffffffffffff1673ffffffffffffffffffffffffffffffffffffffff1673ffffffffffffffffffffffffffffffffffffffff168152602001908152602001600020600082825401925050819055508082840101600080828254039250508190555060036000610d3c9190610e44565b50505050505050565b600082825114905092915050565b80341115610d9e573373ffffffffffffffffffffffffffffffffffffffff166108fc8234039081150290604051600060405180830381858888f193505050501515610d9d57600080fd5b5b50565b6000600460055401431015905090565b602060405190810160405280600081525090565b828054828255906000526020600020908101928215610e07579160200282015b82811115610e06578251829060001916905591602001919060010190610de5565b5b509050610e149190610e65565b5090565b815481835581811511610e3f57818360005260206000209182019101610e3e9190610e8a565b5b505050565b5080546000825590600052602060002090810190610e629190610e8a565b50565b610e8791905b80821115610e83576000816000905550600101610e6b565b5090565b90565b610ee191905b80821115610edd57600080820160006101000a81549073ffffffffffffffffffffffffffffffffffffffff02191690556000820160146101000a81549060ff021916905550600101610e90565b5090565b905600a165627a7a72305820d599e6e11c2d6bbc88fc2cd42d4eadfab5501691659296cfb930afcd9e38ab4d0029",
  "source": "pragma solidity ^0.4.19; \n\ncontract Lottery {\n    \n    /*  Constants   */\n    uint constant fullTicketPrice = 8 finney ;\n    uint constant halfTicketPrice = 4 finney ;\n    uint constant quarterTicketPrice = 2 finney ;\n    \n    /*\n    Number of random to be submitted when buying a new ticket.\n    If callers submit less or more the call will be reverted.\n    */\n    uint constant numberOfRandoms = 3;\n    /*\n    Number of blocks until the round ends.\n    There are two rounds, submission and reveal.\n    */\n    uint constant roundPeriod = 4;\n    /* \n    Second winner will get 1/secondWinnerCof of the relative price.\n    */\n    uint constant secondWinnerCof = 2;\n    \n    /* \n    Third winner will get 1/thirdWinnerCof of the relative price.\n    */\n    uint constant thirdWinnerCof = 4;\n    \n    \n    uint collected_money;\n    \n    /* \n    When buying a ticket, users submit keccak256(N,address) to the conract.\n    These hashes are stored in this mapping so that they can later be verified \n    during the reveal process.\n    More precisely during the reveal process callers will submit 'numberOfRandoms'\n    random numbers that were submitted when buying a ticket. The hash will be\n    verified in the contract.\n    */\n    mapping(address=>bytes32[]) hashes;\n    \n    /* \n    Users prizes will be stored in this mapping so that they can withdraw their \n    winnings any time they want to.\n    */\n    mapping(address=>uint) profits;\n    \n    /*\n    participants is the array of all buyers in the current lottery. Note that \n    the same address can buy more than one ticket, they will all be added to this\n    array.\n    */\n    buyer[] participants;\n    \n    /*\n    isSubmissionTime is used to check if it is submission or reveal time.\n    */\n    bool isSubmissionTime; \n    \n    /*\n    roundStartBlockNumber is used to determine if it is time to switch between \n    submission and reveal periods.\n    */\n    uint roundStartBlockNumber;\n    \n    int firstHash; // firstHash is the hash used to determine the first winner\n    int secondHash; // secondHash is the hash used to determine the second winner\n    int thirdHash; // thirdHash is the hash used to determine the third winner\n    \n    function Lottery () public {\n        isSubmissionTime = true; // We start with the submission period.\n        roundStartBlockNumber = block.number; // Let the current block be the startBlock.\n    }\n    \n    struct buyer {\n        address buyersAddress;\n        uint8 ticketCoeffecient; // 2 -> Full 4 -> Half 8-> Quarter\n    }\n    \n    modifier noEthSent(){\n        if (msg.value>0) {\n          revert();\n      }\n        _;\n    }\n    \n    modifier canSubmit(){\n        if (!isSubmissionTime) revert();\n        _;\n    }\n    modifier canReveal(){\n        if (isSubmissionTime) revert();\n        _;\n    }\n    \n    modifier FullTicket() {\n        if (msg.value < fullTicketPrice) {\n            revert();\n        }\n        _;\n    }\n    \n    modifier HalfTicket() {\n        if (msg.value < halfTicketPrice) {\n            revert();\n        }\n        _;\n    }\n    \n    modifier QuarterTicket() {\n        if (msg.value < quarterTicketPrice) {\n            revert();\n        }\n        _;\n    }\n    \n    // withdraw lets winners withdraw their winnings.\n    // This method first subtracts the amount to be withdrawn from the account\n    // so that DOA (recursive calls) are not dangerous for the contract. After \n    // subtracting the relevant amount the send call is executed. Note that if \n    // caller tries to withdraw more than his winnings it will be reverted.\n    function withdraw(uint amount) public {\n        if (profits[msg.sender] <=0) revert();\n        if (profits[msg.sender] >= amount) {\n            profits[msg.sender] -= amount;\n            if (!msg.sender.send(amount)) revert();\n        }\n    }\n    \n    function sendTheRemainingMoney(uint ticketPrice) private {\n        if (msg.value > ticketPrice) {\n            if ( !msg.sender.send(msg.value - ticketPrice) ) revert();\n        }\n    }    \n\n    function checkHashes(bytes32[] expectedHashes,bytes32[] givenHashes) private pure returns(bool){\n        for(uint i = 0; i< givenHashes.length ; i++){\n            bool found = false;\n            for(uint k = 0 ; k < expectedHashes.length;k++){\n                if (givenHashes[i]==expectedHashes[k]){\n                    found =true;\n                    break;\n                }\n            }\n            if (!found) return false;\n        }\n        return true;\n    }\n    \n    function isEndOfReveal() private view returns(bool){\n        return block.number >= roundStartBlockNumber + roundPeriod;\n    }\n    \n    function isEndOfSubmission() private view returns (bool){\n        return block.number >= roundStartBlockNumber + roundPeriod;\n    }\n    \n    function updateRandomHashes(int[] numbers) private {\n        firstHash ^= numbers[0];\n        secondHash ^= numbers[1];\n        thirdHash ^= numbers[2];\n    }\n    \n    function findWinnersAndGivePrizes() private{\n        uint numberOfParticipants = participants.length;\n        \n        // Take the mod with the numberOfParticipants so that it is guaranteed\n        // that there will be a winner.\n        // TODO:: make sure winners are different indexes.\n        uint firstWinnerIndex = uint(firstHash)%numberOfParticipants;\n        uint secondWinnerIndex = uint(secondHash)%numberOfParticipants;\n        uint thirdWinnerIndex = uint(thirdHash)%numberOfParticipants;\n         \n        // Calculate the prizes based on the position and ticket type.\n        uint firstPrize = collected_money/participants[firstWinnerIndex].ticketCoeffecient; \n        uint secondPrize = collected_money/participants[secondWinnerIndex].ticketCoeffecient/secondWinnerCof;\n        uint thirdPrize = collected_money/participants[thirdWinnerIndex].ticketCoeffecient/thirdWinnerCof;\n        \n        // Store the profits so that later on winners can withdraw them.\n        profits[participants[firstWinnerIndex].buyersAddress] += firstPrize;\n        profits[participants[secondWinnerIndex].buyersAddress] += secondPrize ;\n        profits[participants[thirdWinnerIndex].buyersAddress] += thirdPrize ;\n        // Update the collected_money.\n        collected_money -= firstPrize + secondPrize + thirdPrize;\n        // Delete the participants for the next round.\n        delete participants;\n         \n    }\n    \n    function reveal(int[] numbers) public canReveal noEthSent {\n        // Check if numbers are exactly 'numberOfRandoms'. Otherwise revert.\n        if (!hasExactlyXElementsIntArray(numberOfRandoms,numbers)) revert();\n        bytes32[] memory givenHashes = new bytes32[](numberOfRandoms);\n        // Calculate the hashes with the given number and the senders address\n        for (uint i = 0 ; i < numbers.length;i++){\n            givenHashes[i]=(keccak256(numbers[i],msg.sender));\n        }\n        // Check if the submission and reveal hashes are matched. Otherwise revert.\n        if (!checkHashes(hashes[msg.sender],givenHashes)) revert();\n        // Update the hashes to determine the winners.\n        updateRandomHashes(numbers);\n        // Check if it is time to find winners. If so switch to the submission period.\n        if (isEndOfReveal()){\n            isSubmissionTime = true;\n            // Give the prizes.\n            findWinnersAndGivePrizes();\n            roundStartBlockNumber = block.number + 1;\n        }\n        \n    }\n    function hasExactlyXElements(uint x,bytes32[] hashArray) private pure returns(bool){\n        return hashArray.length == x;\n    }\n    \n    function hasExactlyXElementsIntArray(uint x,int[] intArray) private pure returns(bool){\n        return intArray.length == x;\n    }\n    function buyFullTicket(bytes32[] hashArray) public FullTicket canSubmit payable returns (bool bought){\n        buyTicket(fullTicketPrice,hashArray,2);\n        return true;\n    }\n    \n    function buyHalfTicket(bytes32[] hashArray) public HalfTicket canSubmit payable returns (bool bought){\n        buyTicket(halfTicketPrice,hashArray,4);\n        return true;\n    }\n    \n    function buyQuarterTicket(bytes32[] hashArray) public QuarterTicket canSubmit payable returns (bool bought){\n        buyTicket(quarterTicketPrice,hashArray,8);\n        return true;\n    }\n    \n    function buyTicket(uint ticketPrice,bytes32[] hashArray,uint8 ticketCoefficient) private {\n        // Check if there are exactly 'numberOfRandoms' hashes. Otherwise revert.\n        if (!hasExactlyXElements(numberOfRandoms,hashArray)) revert();\n        // Record the hashes of the sender to verify later\n        // TODO:: same address multiple tickets\n        hashes[msg.sender] = hashArray;\n        // Add the caller to the participants\n        participants.push(buyer(msg.sender,ticketCoefficient));\n        collected_money += ticketPrice;\n        // Send the excessive amount\n        sendTheRemainingMoney(ticketPrice);\n        // Check if it is time to switch to the reveal period\n        if (isEndOfSubmission()){\n            isSubmissionTime = false;\n            roundStartBlockNumber = block.number + 1;\n        }\n    }\n    \n    function getCollectedMoney() public view returns(uint){\n        return collected_money;\n    }\n    \n    function getBlockNumber() public view returns(uint){\n        return block.number;\n    }\n    \n    function getRound() public view returns(uint){\n        return block.number;\n    }\n    function getHash(address x) public pure returns(bytes32){\n        return keccak256(int(9),x);\n    }\n}\n",
  "sourcePath": "/Users/hazelcast/VisualStudioProjects/lotterySmartContract/contracts/lottery.sol",
  "compiler": {
    "name": "solc",
    "version": "0.4.19+commit.c4cbbb05.Emscripten.clang"
  },
  "schemaVersion": "2.0.0",
  "updatedAt": "2018-04-02T11:02:15.934Z"
}